:100000000C942A000C94F2040C9447000C944700C2
:100010000C9447000C9447000C9447000C94470044
:100020000C9447000C9447000C9447000C94470034
:100030000C9447000C9447000C9447000C94470024
:100040000C9447000C9447000C9447000C94470014
:100050000C94470011241FBECFE5D8E0DEBFCDBF12
:1000600010E0A0E6B0E0ECECFAE002C005900D92E2
:10007000A83DB107D9F710E0A8EDB0E001C01D928E
:10008000AE3DB107E1F70E94A6020C9464050C9402
:100090000000CF93DF93D0E08CE061E00E94F70393
:1000A0008DE061E00E94F7038EE061E00E94F703BB
:1000B0008FE061E00E94F7038D2F845F60E00E9473
:1000C000F703C0E08C2F8C5F0E947804882361F4D2
:1000D000ED2FF0E0EE0FFF1FEE0FFF1FEC0FF11DF5
:1000E000E05AFF4F808104C0CF5FC43059F703C08E
:1000F000DF91CF910895DF5FD43071F68FEFF8CFA5
:1001000087E161E00E94F70382E08A95F1F700C081
:1001100087E160E00E94F7038FE99FE00197F1F724
:1001200000C000000895CF93C82F85E160E00E94D1
:10013000F70386E160E00E94F703CC232CF483E10F
:1001400061E00E94F70304C083E160E00E94F703CE
:100150008C2F829586958695837080FF05C082E1FD
:1001600061E00E94F70304C082E160E00E94F703AF
:100170008C2F82958695877080FF05C081E161E0B4
:100180000E94F70304C081E160E00E94F7038C2F16
:1001900082958F7080FF05C080E161E00E94F703C7
:1001A00004C080E160E00E94F7030E9480008C2F71
:1001B00086958695869580FF05C083E161E00E9463
:1001C000F70304C083E160E00E94F7038C2F86955B
:1001D000869580FF05C082E161E00E94F70304C0BC
:1001E00082E160E00E94F7038C2F869580FF05C0B6
:1001F00081E161E00E94F70304C081E160E00E94B8
:10020000F703C0FF05C080E161E00E94F70304C06E
:1002100080E160E00E94F7030E948000CF91089582
:100220008FE39CE90197F1F700C0000083E30E948F
:10023000930082E30E94930088E20E9493008EE084
:100240000E94930086E00E9493008FE19EE4019754
:10025000F1F700C0000080E80E94930081E00E9456
:1002600093008FE19EE40197F1F700C0000008952C
:10027000CF93C82F85E161E00E94F70386E160E03B
:100280000E94F703CC232CF483E161E00E94F70382
:1002900004C083E160E00E94F7038C2F829586956D
:1002A0008695837080FF05C082E161E00E94F703BC
:1002B00004C082E160E00E94F7038C2F829586954E
:1002C000877080FF05C081E161E00E94F70304C0F0
:1002D00081E160E00E94F7038C2F82958F7080FF90
:1002E00005C080E161E00E94F70304C080E160E0A6
:1002F0000E94F7030E9480008C2F86958695869534
:1003000080FF05C083E161E00E94F70304C083E140
:1003100060E00E94F7038C2F8695869580FF05C0CC
:1003200082E161E00E94F70304C082E160E00E9484
:10033000F7038C2F869580FF05C081E161E00E9464
:10034000F70304C081E160E00E94F703C0FF05C02D
:1003500080E161E00E94F70304C080E160E00E9458
:10036000F7030E948000CF910895EF92FF920F93C0
:100370001F93CF93DF93FC01C081CC23C9F08C0184
:100380000F5F1F4FD1E0FF24F394EE2409C0DF5F1D
:10039000D13130F0FF2021F080EC0E949300FE2C40
:1003A0008C2F0E943801F801C1918F01CC2379F77D
:1003B000DF91CF911F910F91FF90EF900895CF9310
:1003C000DF93EC01442341F4603178F4862F84718B
:1003D00080680E94930009C0413039F4603128F4EC
:1003E000862F8471806C0E949300CE010E94B5011B
:1003F000DF91CF910895CF93C82F64E60E94310515
:10040000805D0E9438012AE08C2F622F0E94310506
:10041000C92F0E943105892F805D0E9438018C2FE1
:10042000805D0E943801CF910895CF93C82F442357
:1004300039F4603168F4862F80580E94930008C018
:10044000413031F4603120F4862F80540E949300B3
:100450008C2F0E94FB01CF910895CF93DF9300D0A2
:1004600000D00F92CDB7DEB799232CF490958195EB
:100470009F4F41E001C040E0009799F010E02AE072
:1004800030E0E1E0F0E0EC0FFD1FE10FF11DB901FC
:100490000E943D0580831F5F862F972F009789F765
:1004A00001C010E0442319F08DE20E943801115080
:1004B000E1E0F0E0EC0FFD1FE10FF11D8081805DB8
:1004C0000E9438011150F4CFEC01442339F460311B
:1004D00068F4862F80580E94930008C0413031F4A0
:1004E000603120F4862F80540E949300CE010E9438
:1004F0002D02282F2150223070F4613170F46623D0
:1005000071F0813019F4962F91580AC0823041F46D
:10051000962F915405C090E803C090E801C090E880
:10052000892F0E9493008FEC97E00197F1F700C0AC
:100530000000089581E00E949300089581E00E94E8
:100540002305089582E00E94230508950E94D902A0
:100550000E941B050E94C50278940E94C6040E9456
:10056000CB028330910520F48EE40E94230503C062
:100570008DE40E9423058FEF94E3ACE0815090401E
:10058000A040E1F700C00000EACF3E9A3F9A379AB8
:10059000329A319A0895389A369A86B184FDFDCF01
:1005A000349A84B190E045B1342F20E0822B932B14
:1005B0000895CF92DF92EF92FF920F931F93CF9304
:1005C000DF93C0E7D0E0DE011196AE014D5F5F4FD3
:1005D0009E012E5F3F4F0F2EF9EDEF2EF0E0FF2E24
:1005E000F02D01E010E06E018881882341F5F901CA
:1005F0008081813059F46AB3C8010C9002C0880F21
:10060000991F0A94E2F7862B8ABB19C06AB3C80106
:100610000C9002C0880F991F0A94E2F78095682316
:100620006ABBFA018081813051F46BB3C8010C9030
:1006300002C0880F991F0A94E2F7862B8BBBF60144
:100640008081813041F5F9018081813059F467B3AF
:10065000C8010C9002C0880F991F0A94E2F7862BFC
:1006600087BB19C067B3C8010C9002C0880F991FDF
:100670000A94E2F78095682367BBFA018081813094
:1006800051F468B3C8010C9002C0880F991F0A94F6
:10069000E2F7862B88BBF6018081823041F5F901B3
:1006A0008081813059F464B3C8010C9002C0880F76
:1006B000991F0A94E2F7862B84BB19C064B3C80162
:1006C0000C9002C0880F991F0A94E2F78095682366
:1006D00064BBFA018081813051F465B3C8010C908C
:1006E00002C0880F991F0A94E2F7862B85BBF6019A
:1006F0008081833041F5F9018081813059F461B303
:10070000C8010C9002C0880F991F0A94E2F7862B4B
:1007100081BB19C061B3C8010C9002C0880F991F3A
:100720000A94E2F78095862381BBFA0180818130AB
:1007300051F462B3C8010C9002C0880F991F0A944B
:10074000E2F7862B82BB249614964C5F5F4F2C5F9A
:100750003F4FAE15BF0509F046CFDF91CF911F91F6
:100760000F91FF90EF90DF90CF900895982F96957E
:10077000969596958770992369F44BB321E030E004
:10078000B90102C0660F771F8A95E2F7CB01842773
:100790008BBB0895913069F448B321E030E0B90192
:1007A00002C0660F771F8A95E2F7CB01842788BBCA
:1007B0000895923069F445B321E030E0B90102C0F8
:1007C000660F771F8A95E2F7CB01842785BB0895D2
:1007D000933061F442B321E030E0B90102C0660F0A
:1007E000771F8A95E2F7CB01842782BB0895982F63
:1007F00096959695969587709923E9F4613069F4FA
:100800004BB321E030E0B90102C0660F771F8A9533
:10081000E2F7CB01842B8BBB08954BB321E030E092
:10082000B90102C0660F771F8A95E2F7CB01809568
:1008300084238BBB08959130E9F4613069F448B3A7
:1008400021E030E0B90102C0660F771F8A95E2F718
:10085000CB01842B88BB089548B321E030E0B90177
:1008600002C0660F771F8A95E2F7CB01809584233B
:1008700088BB08959230E9F4613069F445B321E012
:1008800030E0B90102C0660F771F8A95E2F7CB010D
:10089000842B85BB089545B321E030E0B90102C047
:1008A000660F771F8A95E2F7CB018095842385BB7D
:1008B00008959330E1F4613069F442B321E030E00F
:1008C000B90102C0660F771F8A95E2F7CB01842B2E
:1008D00082BB089542B321E030E0B90102C0660F47
:1008E000771F8A95E2F7CB018095842382BB089518
:1008F000982F9695969596958770992359F429B3D4
:1009000030E0A90102C0559547958A95E2F7CA01E2
:1009100081700895913059F426B330E0A90102C0E6
:10092000559547958A95E2F7CA01817008959230EE
:1009300059F423B330E0A90102C0559547958A9533
:10094000E2F7CA0181700895933059F420B330E082
:10095000A90102C0559547958A95E2F7CA018170B1
:10096000089580E00895813049F0813018F0823098
:1009700061F408C08BB780648BBF08958BB7806823
:100980008BBF08958BB780628BBF089580E00E9473
:10099000B30485B78E7F85BF85B7826085BF089514
:1009A000813049F0813018F0823061F408C08BB793
:1009B0008F7B8BBF08958BB78F778BBF08958BB7D5
:1009C0008F7D8BBF08959093DD008093DC000895A8
:1009D0009093D9008093D80008959093DB00809382
:1009E000DA0008951F920F920FB60F9211242F93E1
:1009F0003F934F935F936F937F938F939F93AF93A7
:100A0000BF93EF93FF93E091DC00F091DD0030970E
:100A100009F00995FF91EF91BF91AF919F918F914F
:100A20007F916F915F914F913F912F910F900FBEEA
:100A30000F901F90189510BC83E389B988E18AB99B
:100A40008EE080BD08955D9BFECF8CB908955F9BBD
:100A5000FECF8CB108955F9B03C08CB15F99FDCF31
:100A60000895991B79E004C0991F961708F0961B0A
:100A7000881F7A95C9F78095089597FB092E072658
:100A80000AD077FD04D00CD006D000201AF470955F
:100A900061957F4F0895F6F7909581959F4F089542
:100AA000AA1BBB1B51E107C0AA1FBB1FA617B70794
:100AB00010F0A61BB70B881F991F5A95A9F78095B0
:0C0AC0009095BC01CD010895F894FFCF83
:100ACC003738392F3435362A3132332D41303D2BDE
:100ADC0002000100020101000202010002030100F8
:100AEC0002040100020501000206010002070100D8
:100AFC0001000100010101000102010001030100DC
:100B0C0001040100010501000106010001070100BB
:100B1C0000000100000101000002010000030100BF
:100B2C00000400010005000100060001000700019F
:080B3C000302000003030100A5
:00000001FF
