S00D00006D61696E312E7372656341
S11300000C942A000C9494080C9447000C94470018
S11300100C9447000C9447000C9447000C94470040
S11300200C9447000C9447000C9447000C94470030
S11300300C9447000C9447000C9447000C94470020
S11300400C9447000C9447000C9447000C94470010
S11300500C94470011241FBECFE5D8E0DEBFCDBF0E
S113006011E0A0E6B0E0EAE4F4E102C005900D92EC
S1130070AA3AB107D9F711E0AAEAB1E001C01D928A
S1130080A23DB107E1F70E94FE030C94230A0C94ED
S11300900000CF93DF93D0E08CE061E00E948B07F7
S11300A08DE061E00E948B078EE061E00E948B0787
S11300B08FE061E00E948B078D2F845F60E00E94D7
S11300C08B07C0E08C2F8C5F0E940C08882361F49E
S11300D0ED2FF0E0EE0FFF1FEE0FFF1FEC0FF11DF1
S11300E0E05AFF4F808104C0CF5FC43059F703C08A
S11300F0DF91CF910895DF5FD43071F68FEFF8CFA1
S113010087E161E00E948B0782E08A95F1F700C0E5
S113011087E160E00E948B078FE99FE00197F1F788
S113012000C000000895CF93C82F85E160E00E94CD
S11301308B0786E160E00E948B07CC232CF483E1DB
S113014061E00E948B0704C083E160E00E948B079A
S11301508C2F829586958695837080FF05C082E1F9
S113016061E00E948B0704C082E160E00E948B077B
S11301708C2F82958695877080FF05C081E161E0B0
S11301800E948B0704C081E160E00E948B078C2FE2
S113019082958F7080FF05C080E161E00E948B072B
S11301A004C080E160E00E948B070E9480008C2FD5
S11301B086958695869580FF05C083E161E00E945F
S11301C08B0704C083E160E00E948B078C2F869527
S11301D0869580FF05C082E161E00E948B0704C020
S11301E082E160E00E948B078C2F869580FF05C01A
S11301F081E161E00E948B0704C081E160E00E941C
S11302008B07C0FF05C080E161E00E948B0704C03A
S113021080E160E00E948B070E948000CF910895E6
S11302208FE39CE90197F1F700C0000083E30E948B
S1130230930082E30E94930088E20E9493008EE080
S11302400E94930086E00E9493008FE19EE4019750
S1130250F1F700C0000080E80E94930081E00E9452
S113026093008FE19EE40197F1F700C00000089528
S1130270CF93C82F85E161E00E948B0786E160E09F
S11302800E948B07CC232CF483E161E00E948B074E
S113029004C083E160E00E948B078C2F82958695D1
S11302A08695837080FF05C082E161E00E948B0720
S11302B004C082E160E00E948B078C2F82958695B2
S11302C0877080FF05C081E161E00E948B0704C054
S11302D081E160E00E948B078C2F82958F7080FFF4
S11302E005C080E161E00E948B0704C080E160E00A
S11302F00E948B070E9480008C2F86958695869598
S113030080FF05C083E161E00E948B0704C083E1A4
S113031060E00E948B078C2F8695869580FF05C030
S113032082E161E00E948B0704C082E160E00E94E8
S11303308B078C2F869580FF05C081E161E00E94C8
S11303408B0704C081E160E00E948B07C0FF05C0F9
S113035080E161E00E948B0704C080E160E00E94BC
S11303608B070E948000CF910895EF92FF920F9324
S11303701F93CF93DF93FC01C081CC23C9F08C0180
S11303800F5F1F4FD1E0FF24F394EE2409C0DF5F19
S1130390D13130F0FF2021F080EC0E949300FE2C3C
S11303A08C2F0E943801F801C1918F01CC2379F779
S11303B0DF91CF911F910F91FF90EF900895CF930C
S11303C0DF93EC01442341F4603178F4862F847187
S11303D080680E94930009C0413039F4603128F4E8
S11303E0862F8471806C0E949300CE010E94B50117
S11303F0DF91CF910895CF93C82F64E60E94F0094E
S1130400805D0E9438012AE08C2F622F0E94F0093F
S1130410C92F0E94F009892F805D0E9438018C2F1A
S1130420805D0E943801CF910895CF93C82F442353
S113043039F4603168F4862F80580E94930008C014
S1130440413031F4603120F4862F80540E949300AF
S11304508C2F0E94FB01CF910895CF93DF9300D09E
S113046000D00F92CDB7DEB799232CF490958195E7
S11304709F4F41E001C040E0009799F010E02AE06E
S113048030E0E1E0F0E0EC0FFD1FE10FF11DB901F8
S11304900E94100A80831F5F862F972F009789F789
S11304A001C010E0442319F08DE20E94380111507C
S11304B0E1E0F0E0EC0FFD1FE10FF11D8081805DB4
S11304C00E9438011150F4CFEC01442339F4603117
S11304D068F4862F80580E94930008C0413031F49C
S11304E0603120F4862F80540E949300CE010E9434
S11304F02D02282F2150223070F4613170F46623CC
S113050071F0813019F4962F91580AC0823041F469
S1130510962F915405C090E803C090E801C090E87C
S1130520892F0E9493008FEC97E00197F1F700C0A8
S11305300000089581E00E94930008958091AD0128
S1130540882369F08091AE018F5F8093AE0184307F
S113055018F081E08093AE0181E080934101089519
S11305609091AC01E8EBF1E0E90FF11D80839F5F0E
S11305709093AC0108958091AA018B3261F08C3282
S113058020F48A3209F068C02EC08D32C1F08F3257
S113059009F062C03EC09091B3018091B601890F09
S11305A065E041E00E9415021092AA011092B70181
S11305B01092B6011092B4011092B3010895809183
S11305C0B6019091B301891B65E041E00E941502D8
S11305D01092AA011092B7011092B6011092B401C0
S11305E01092B30108959091B3018091B601989F40
S11305F0802D112465E041E00E9415021092AA01A9
S11306001092B7011092B6011092B4011092B30186
S113061008956091B3017091B4016115710539F4C5
S113062080E790E065E041E00E94DF010895809159
S1130630B6019091B7010E94FC09862F65E041E064
S11306400E9415021092AA011092B7011092B601ED
S11306501092B4011092B30108951092AC0181E09C
S11306600E9493000895CF93DF93EC0180914101A0
S1130670882339F0109241010E942D03CE010E947B
S1130680B501DF91CF91089580914101882301F153
S1130690109241010E942D0388E790E00E94B50169
S11306A08091B6019091B701009791F00E94FB01EF
S11306B08091AA01882361F00E9438018091B301DE
S11306C09091B401009721F00E94FB010E94BB02AB
S11306D008950F931F93CF930E949A028EE790E0A0
S11306E00E94B50100E010E00E944900F801E155C4
S11306F0FE4F80838F3FC1F3C02FC85F82E06C2F11
S11307000E947902F801E155FE4F80810E94380170
S113071082E06C2F0E9479028FEF94E3ACE0815069
S11307209040A040E1F700C000008AE20E94380136
S11307300F5F1F4F04301105B9F681E290E00E946B
S113074050089091AF01891709F043C082E290E00C
S11307500E9450089091B0018917D9F583E290E086
S11307600E9450089091B101891799F584E290E0B4
S11307700E9450089091B201891759F50E949A027B
S113078088E890E00E94B5018FEF99E6A8E18150D6
S11307909040A040E1F700C000000E949A0280E26D
S11307A090E06FEF0E94470881E290E06FEF0E94B3
S11307B0470882E290E06FEF0E94470883E290E0EE
S11307C06FEF0E94470884E290E06FEF0E944708B1
S11307D011C00E949A0289E990E00E94B5018FEF4E
S11307E099E6A8E181509040A040E1F700C00000E4
S11307F00E949A02CF911F910F910895CF93DF9396
S113080000D000D00F92CDB7DEB70E9468088FB732
S113081080688FBF0E946D060E9410018EE992E0ED
S11308200E9485080E94BD080E94590681E00E942A
S1130830930084EA90E00E94B50180EC0E9493004A
S113084013E033240F2EF2EB8F2EF1E09F2EF02DC8
S1130850C40103979A83898329809B8301C01E2D39
S11308608091AE01882309F008C10E949A02E12E0A
S113087080E290E00E9450088F3F69F583EB90E09E
S11308800E94B50101E210E00E944900F82E9FEF9A
S11308908917D1F30E9438018FEF94E3ACE08150C3
S11308A09040A040E1F700C00000602F675181E054
S11308B00E9479028AE20E943801C8016F2D0E94C9
S11308C047080F5F1F4F05321105F1F680E290E0F3
S11308D060E00E944708332019F0C1CFE12E1CC00C
S11308E00FEF64010894C108D1080F2EFEEFAF2E5C
S11308F0FFEFBF2EF02DA80CB91CFF246894F3F869
S11309000F2EF0EB6F2EF1E07F2EF02D0F2EF1EB7A
S11309104F2EF1E05F2EF02DD4010C93F6010083ED
S1130920D5010C93E981FA8100830E949A028DEB30
S113093090E00E94B5012C82FB81FD831F2D80E095
S11309400E940C08813061F48FEF94E3ACE0815095
S11309509040A040E1F700C000000E94690388CFE6
S11309600E944900AC81BD818C938F3F41F30E946A
S113097038018FEF94E3ACE081509040A040E1F760
S113098000C0000082E0612F0E9479028AE20E9486
S113099038011F5FAC81BD811196BD83AC831C30CF
S11309A071F681E290E00E945008EFEAF1E0908154
S11309B08917B1F582E290E00E945008D3019C911E
S11309C0891771F583E290E00E945008F20190814A
S11309D0891731F584E290E00E945008D4019C917B
S11309E08917F1F40E949A028EEC90E00E94B501FE
S11309F08DED90E060E041E00E94DF018FEF93ED28
S1130A00A0E381509040A040E1F700C0000081E0E5
S1130A108093AE018093AD010E942D031E2D46C12B
S1130A201E2D1150E9F00E949A028EEE90E00E9471
S1130A30B5010E949A028DEF90E00E94B5018E2DBF
S1130A40815D0E9438018FEF99E6A8E181509040C2
S1130A50A040E1F700C00000332009F43FCF00CFED
S1130A600E949A028EEE90E00E94B50189E091E026
S1130A7062E041E00E94DF0119C1813009F08FC0BA
S1130A808CE160E00E948B070E9444030E944900AD
S1130A90082F8F3F09F4E4CE813441F481E0809340
S1130AA0410188E790E00E943303DACE8D3319F4D4
S1130AB00E94BB02D5CE8B3231F08D3221F08A32C6
S1130AC011F08F3279F4802F0E9438018FEF94E374
S1130AD0ACE081509040A040E1F700C000000093DA
S1130AE0AA01BECE0E9438018FEF94E3ACE081509E
S1130AF09040A040E1F700C000008091AA01882343
S1130B0031F580914001813051F4802F90E0C097FD
S1130B109093B7018093B60110924001A1CE88232F
S1130B2009F09ECE8091B6019091B701880F991F6C
S1130B309C01220F331F220F331F820F931FC09774
S1130B40800F911D9093B7018093B60189CE809157
S1130B503F01813051F4802F90E0C0979093B4010D
S1130B608093B30110923F017BCE80914001882392
S1130B7009F076CE8091B3019091B401880F991F4A
S1130B809C01220F331F220F331F820F931FC09724
S1130B90800F911D9093B4018093B30161CE823094
S1130BA009F05AC08CE160E00E948B0785E191E076
S1130BB00E9433030E945F06BC0180E090E00E9423
S1130BC0FF0820E030E040E85EE30E9465090E94EF
S1130BD0D308DC01CB017C0160E041E00E941502F6
S1130BE083E60E94380193E3E916F104E0F082E021
S1130BF00E944A0783E00E944A078FE799EAA3E02C
S1130C0081509040A040E1F700C000008BE061E01B
S1130C100E948B0789E060E00E948B078AE061E014
S1130C200E948B071DCE83E00E944A078FEF91EE4E
S1130C30A4E081509040A040E1F700C000008BE0A8
S1130C4061E00E948B0789E061E00E948B078AE0E3
S1130C5060E00E948B0704CE833009F001CE84E269
S1130C6091E00E9433038BE060E00E948B070E94B6
S1130C70C9088093B5018E3459F481E391E065E0AD
S1130C8041E00E94DF018CE161E00E948B07E8CD26
S1130C908D3409F0E5CD87E391E065E041E00E9401
S1130CA0DF018CE160E00E948B07DACD33243394BA
S1130CB0D7CD3E9A3F9A379A329A319A0895389A04
S1130CC0369A86B184FDFDCF349A84B190E045B163
S1130CD0342F20E0822B932B0895CF92DF92EF9252
S1130CE0FF920F931F93CF93DF93C2E4D1E0DE0111
S1130CF01196AE014D5F5F4F9E012E5F3F4F0F2E49
S1130D00FBEAEF2EF1E0FF2EF02D01E010E06E0182
S1130D108881882341F5F9018081813059F46AB3CF
S1130D20C8010C9002C0880F991F0A94E2F7862B21
S1130D308ABB19C06AB3C8010C9002C0880F991FFE
S1130D400A94E2F7809568236ABBFA0180818130B6
S1130D5051F46BB3C8010C9002C0880F991F0A9418
S1130D60E2F7862B8BBBF6018081813041F5F901D6
S1130D708081813059F467B3C8010C9002C0880F98
S1130D80991F0A94E2F7862B87BB19C067B3C80181
S1130D900C9002C0880F991F0A94E2F7809568238B
S1130DA067BBFA018081813051F468B3C8010C90AB
S1130DB002C0880F991F0A94E2F7862B88BBF601BC
S1130DC08081823041F5F9018081813059F464B326
S1130DD0C8010C9002C0880F991F0A94E2F7862B71
S1130DE084BB19C064B3C8010C9002C0880F991F5A
S1130DF00A94E2F78095682364BBFA01808181300C
S1130E0051F465B3C8010C9002C0880F991F0A946D
S1130E10E2F7862B85BBF6018081833041F5F90129
S1130E208081813059F461B3C8010C9002C0880FED
S1130E30991F0A94E2F7862B81BB19C061B3C801DC
S1130E400C9002C0880F991F0A94E2F780958623BC
S1130E5081BBFA018081813051F462B3C8010C90E6
S1130E6002C0880F991F0A94E2F7862B82BB24964E
S1130E7014964C5F5F4F2C5F3F4FAE15BF0509F0D2
S1130E8046CFDF91CF911F910F91FF90EF90DF90AC
S1130E90CF900895982F9695969596958770992357
S1130EA069F44BB321E030E0B90102C0660F771F4B
S1130EB08A95E2F7CB0184278BBB0895913069F4BE
S1130EC048B321E030E0B90102C0660F771F8A956C
S1130ED0E2F7CB01842788BB0895923069F445B3C7
S1130EE021E030E0B90102C0660F771F8A95E2F76E
S1130EF0CB01842785BB0895933061F442B321E08C
S1130F0030E0B90102C0660F771F8A95E2F7CB0182
S1130F10842782BB0895982F969596959695877009
S1130F209923E9F4613069F44BB321E030E0B9016D
S1130F3002C0660F771F8A95E2F7CB01842B8BBB27
S1130F4008954BB321E030E0B90102C0660F771F6A
S1130F508A95E2F7CB01809584238BBB0895913069
S1130F60E9F4613069F448B321E030E0B90102C02A
S1130F70660F771F8A95E2F7CB01842B88BB08950F
S1130F8048B321E030E0B90102C0660F771F8A95AB
S1130F90E2F7CB018095842388BB08959230E9F46D
S1130FA0613069F445B321E030E0B90102C0660F55
S1130FB0771F8A95E2F7CB01842B85BB089545B34F
S1130FC021E030E0B90102C0660F771F8A95E2F78D
S1130FD0CB018095842385BB08959330E1F461307F
S1130FE069F442B321E030E0B90102C0660F771F13
S1130FF08A95E2F7CB01842B82BB089542B321E0AA
S113100030E0B90102C0660F771F8A95E2F7CB0181
S11310108095842382BB0895982F969596959695EE
S11310208770992359F429B330E0A90102C055957A
S113103047958A95E2F7CA0181700895913059F471
S113104026B330E0A90102C0559547958A95E2F789
S1131050CA0181700895923059F423B330E0A90194
S113106002C0559547958A95E2F7CA0181700895A3
S1131070933059F420B330E0A90102C05595479547
S11310808A95E2F7CA018170089580E008959FBBB4
S11310908EBB6DBBE29AE19A8CB381FDFDCF0895BE
S11310A08EBB9FBBE09A8DB30895813049F08130A7
S11310B018F0823061F408C08BB780648BBF089548
S11310C08BB780688BBF08958BB780628BBF089500
S11310D080E00E94550885B78E7F85BF85B7826002
S11310E085BF0895813049F0813018F0823061F471
S11310F008C08BB78F7B8BBF08958BB78F778BBF5F
S113110008958BB78F7D8BBF08959093D101809301
S1131110D00108959093CD018093CC0108959093CC
S1131120CF018093CE0108951F920F920FB60F92B4
S113113011242F933F934F935F936F937F938F93D8
S11311409F93AF93BF93EF93FF93E091D001F091FE
S1131150D101309709F00995FF91EF91BF91AF91BB
S11311609F918F917F916F915F914F913F912F91BB
S11311700F900FBE0F901F90189510BC83E389B990
S113118088E18AB98EE080BD08955D9BFECF8CB95D
S113119008955F9BFECF8CB108955F9B03C08CB113
S11311A05F99FDCF089570D088F09F5790F0B92FC4
S11311B09927B751A0F0D1F0660F771F881F991FA8
S11311C01AF0BA95C9F712C0B13081F077D0B1E006
S11311D0089574C0672F782F8827B85F39F0B93F16
S11311E0CCF3869577956795B395D9F73EF49095AA
S11311F08095709561957F4F8F4F9F4F0895E89428
S113120009C097FB3EF490958095709561957F4F4A
S11312108F4F9F4F9923A9F0F92F96E9BB279395F8
S1131220F695879577956795B795F111F8CFFAF408
S1131230BB0F11F460FF1BC06F5F7F4F8F4F9F4F39
S113124016C0882311F096E911C0772321F09EE897
S1131250872F762F05C0662371F096E8862F70E0FD
S113126060E02AF09A95660F771F881FDAF7880FD7
S11312709695879597F9089557FD9058440F551FF3
S113128059F05F3F71F04795880F97FB991F61F004
S11312909F3F79F087950895121613061406551F7B
S11312A0F2CF4695F1DF08C0161617061806991FE7
S11312B0F1CF86957105610508940895E894BB27DC
S11312C066277727CB0197F908950BD078C069D0AA
S11312D028F06ED018F0952309F05AC05FC011248D
S11312E0EECFCADFA0F3959FD1F3950F50E0551FC1
S11312F0629FF001729FBB27F00DB11D639FAA2767
S1131300F00DB11DAA1F649F6627B00DA11D661FB5
S1131310829F2227B00DA11D621F739FB00DA11DD6
S1131320621F839FA00D611D221F749F3327A00D90
S1131330611D231F849F600D211D822F762F6A2F2C
S113134011249F5750408AF0E1F088234AF0EE0FB1
S1131350FF1FBB1F661F771F881F91505040A9F7BE
S11313609E3F510570F014C0AACF5F3FECF3983E46
S1131370DCF3869577956795B795F795E7959F5F25
S1131380C1F7FE2B880F911D9695879597F90895BF
S113139097F99F6780E870E060E008959FEF80EC24
S11313A0089500240A9416161706180609060895C7
S11313B000240A9412161306140605060895092E2D
S11313C00394000C11F4882352F0BB0F40F4BF2B9C
S11313D011F460FF04C06F5F7F4F8F4F9F4F0895DC
S11313E0991B79E004C0991F961708F0961B881F73
S11313F07A95C9F780950895AA1BBB1B51E107C0D4
S1131400AA1FBB1FA617B70710F0A61BB70B881F90
S1131410991F5A95A9F780959095BC01CD0108951F
S113142097FB092E07260AD077FD04D0E5DF06D006
S113143000201AF4709561957F4F0895F6F7909502
S10D144081959F4F0895F894FFCFA3
S113144A3738392F3435362A3132332D41303D2B52
S113145A696E76616C696400636C633A20006F6C30
S113146A6420706173733A0070617373776F726486
S113147A20636C65617265640077726F6E672070B1
S113148A61737300454E5445522050415353574F8C
S113149A52440073657420706173733A006368651B
S11314AA636B2070617373776F7264203A005269B8
S11314BA6768742050617373776F72640043616C58
S11314CA63756C61746F7220416374697600577234
S11314DA6F6E672070617373776F726400747269D8
S11314EA6573206C6566743A007361666520636C83
S11314FA6F73656400414C41524D2053595354450E
S113150A4D3A20004C49474854204D4F44453A200F
S113151A004E49474854004D4F524E494E47000128
S113152A010102000100020101000202010002039A
S113153A010002040100020501000206010002077B
S113154A010001000100010101000102010001037F
S113155A010001040100010501000106010001075F
S113156A0100000000000001010000020100000364
S113157A0100000400010005000100060001000743
S10D158A0001030200000303010046
S9030000FC
